{
  "contractName": "PendingOrders",
  "abi": [
    {
      "inputs": [
        {
          "internalType": "address",
          "name": "secondaryPoolAddress",
          "type": "address"
        },
        {
          "internalType": "address",
          "name": "collateralTokenAddress",
          "type": "address"
        },
        {
          "internalType": "address",
          "name": "feeWithdrawAddress",
          "type": "address"
        },
        {
          "internalType": "address",
          "name": "eventContractAddress",
          "type": "address"
        }
      ],
      "stateMutability": "nonpayable",
      "type": "constructor"
    },
    {
      "anonymous": false,
      "inputs": [
        {
          "indexed": true,
          "internalType": "address",
          "name": "previousOwner",
          "type": "address"
        },
        {
          "indexed": true,
          "internalType": "address",
          "name": "newOwner",
          "type": "address"
        }
      ],
      "name": "OwnershipTransferred",
      "type": "event"
    },
    {
      "anonymous": false,
      "inputs": [
        {
          "indexed": false,
          "internalType": "uint256",
          "name": "",
          "type": "uint256"
        }
      ],
      "name": "collateralWithdrew",
      "type": "event"
    },
    {
      "anonymous": false,
      "inputs": [
        {
          "indexed": false,
          "internalType": "address",
          "name": "",
          "type": "address"
        }
      ],
      "name": "contractOwnerChanged",
      "type": "event"
    },
    {
      "anonymous": false,
      "inputs": [
        {
          "indexed": false,
          "internalType": "address",
          "name": "",
          "type": "address"
        }
      ],
      "name": "eventContractAddressChanged",
      "type": "event"
    },
    {
      "anonymous": false,
      "inputs": [
        {
          "indexed": false,
          "internalType": "uint256",
          "name": "",
          "type": "uint256"
        }
      ],
      "name": "feeChanged",
      "type": "event"
    },
    {
      "anonymous": false,
      "inputs": [
        {
          "indexed": false,
          "internalType": "address",
          "name": "",
          "type": "address"
        }
      ],
      "name": "feeWithdrawAddressChanged",
      "type": "event"
    },
    {
      "anonymous": false,
      "inputs": [
        {
          "indexed": false,
          "internalType": "uint256",
          "name": "",
          "type": "uint256"
        }
      ],
      "name": "feeWithdrew",
      "type": "event"
    },
    {
      "anonymous": false,
      "inputs": [
        {
          "indexed": false,
          "internalType": "uint256",
          "name": "",
          "type": "uint256"
        }
      ],
      "name": "orderCanceled",
      "type": "event"
    },
    {
      "anonymous": false,
      "inputs": [
        {
          "indexed": false,
          "internalType": "uint256",
          "name": "",
          "type": "uint256"
        }
      ],
      "name": "orderCreated",
      "type": "event"
    },
    {
      "anonymous": false,
      "inputs": [
        {
          "indexed": false,
          "internalType": "address",
          "name": "",
          "type": "address"
        }
      ],
      "name": "secondaryPoolAddressChanged",
      "type": "event"
    },
    {
      "inputs": [],
      "name": "_FEE",
      "outputs": [
        {
          "internalType": "uint256",
          "name": "",
          "type": "uint256"
        }
      ],
      "stateMutability": "view",
      "type": "function"
    },
    {
      "inputs": [],
      "name": "_collateralToken",
      "outputs": [
        {
          "internalType": "contract IERC20",
          "name": "",
          "type": "address"
        }
      ],
      "stateMutability": "view",
      "type": "function"
    },
    {
      "inputs": [],
      "name": "_eventContractAddress",
      "outputs": [
        {
          "internalType": "address",
          "name": "",
          "type": "address"
        }
      ],
      "stateMutability": "view",
      "type": "function"
    },
    {
      "inputs": [],
      "name": "_feeWithdrawAddress",
      "outputs": [
        {
          "internalType": "address",
          "name": "",
          "type": "address"
        }
      ],
      "stateMutability": "view",
      "type": "function"
    },
    {
      "inputs": [],
      "name": "_secondaryPool",
      "outputs": [
        {
          "internalType": "contract ISecondaryPool",
          "name": "",
          "type": "address"
        }
      ],
      "stateMutability": "view",
      "type": "function"
    },
    {
      "inputs": [],
      "name": "_secondaryPoolAddress",
      "outputs": [
        {
          "internalType": "address",
          "name": "",
          "type": "address"
        }
      ],
      "stateMutability": "view",
      "type": "function"
    },
    {
      "inputs": [],
      "name": "isOwner",
      "outputs": [
        {
          "internalType": "bool",
          "name": "",
          "type": "bool"
        }
      ],
      "stateMutability": "view",
      "type": "function"
    },
    {
      "inputs": [],
      "name": "ordersCount",
      "outputs": [
        {
          "internalType": "uint256",
          "name": "",
          "type": "uint256"
        }
      ],
      "stateMutability": "view",
      "type": "function"
    },
    {
      "inputs": [],
      "name": "owner",
      "outputs": [
        {
          "internalType": "address",
          "name": "",
          "type": "address"
        }
      ],
      "stateMutability": "view",
      "type": "function"
    },
    {
      "inputs": [],
      "name": "renounceOwnership",
      "outputs": [],
      "stateMutability": "nonpayable",
      "type": "function"
    },
    {
      "inputs": [
        {
          "internalType": "address",
          "name": "newOwner",
          "type": "address"
        }
      ],
      "name": "transferOwnership",
      "outputs": [],
      "stateMutability": "nonpayable",
      "type": "function"
    },
    {
      "inputs": [
        {
          "internalType": "uint256",
          "name": "_amount",
          "type": "uint256"
        },
        {
          "internalType": "bool",
          "name": "_isWhite",
          "type": "bool"
        },
        {
          "internalType": "uint256",
          "name": "_eventId",
          "type": "uint256"
        }
      ],
      "name": "createOrder",
      "outputs": [
        {
          "internalType": "uint256",
          "name": "",
          "type": "uint256"
        }
      ],
      "stateMutability": "nonpayable",
      "type": "function"
    },
    {
      "inputs": [
        {
          "internalType": "uint256",
          "name": "_orderId",
          "type": "uint256"
        }
      ],
      "name": "cancelOrder",
      "outputs": [],
      "stateMutability": "nonpayable",
      "type": "function"
    },
    {
      "inputs": [
        {
          "internalType": "uint256",
          "name": "_eventId",
          "type": "uint256"
        }
      ],
      "name": "eventStart",
      "outputs": [],
      "stateMutability": "nonpayable",
      "type": "function"
    },
    {
      "inputs": [
        {
          "internalType": "uint256",
          "name": "_eventId",
          "type": "uint256"
        }
      ],
      "name": "eventEnd",
      "outputs": [],
      "stateMutability": "nonpayable",
      "type": "function"
    },
    {
      "inputs": [],
      "name": "withdrawCollateral",
      "outputs": [
        {
          "internalType": "uint256",
          "name": "",
          "type": "uint256"
        }
      ],
      "stateMutability": "nonpayable",
      "type": "function"
    },
    {
      "inputs": [
        {
          "internalType": "address",
          "name": "_newOwnerAddress",
          "type": "address"
        }
      ],
      "name": "changeContractOwner",
      "outputs": [],
      "stateMutability": "nonpayable",
      "type": "function"
    },
    {
      "inputs": [
        {
          "internalType": "address",
          "name": "_newPoolAddress",
          "type": "address"
        }
      ],
      "name": "changeSecondaryPoolAddress",
      "outputs": [],
      "stateMutability": "nonpayable",
      "type": "function"
    },
    {
      "inputs": [
        {
          "internalType": "address",
          "name": "_newEventAddress",
          "type": "address"
        }
      ],
      "name": "changeEventContractAddress",
      "outputs": [],
      "stateMutability": "nonpayable",
      "type": "function"
    },
    {
      "inputs": [
        {
          "internalType": "address",
          "name": "_newFeeWithdrawAddress",
          "type": "address"
        }
      ],
      "name": "changeFeeWithdrawAddress",
      "outputs": [],
      "stateMutability": "nonpayable",
      "type": "function"
    },
    {
      "inputs": [],
      "name": "withdrawFee",
      "outputs": [],
      "stateMutability": "nonpayable",
      "type": "function"
    },
    {
      "inputs": [
        {
          "internalType": "uint256",
          "name": "_newFEE",
          "type": "uint256"
        }
      ],
      "name": "changeFee",
      "outputs": [],
      "stateMutability": "nonpayable",
      "type": "function"
    }
  ],
  "bytecode": "0x6080604052655af3107a40006002553480156200001b57600080fd5b5060405162002db138038062002db1833981810160405260808110156200004157600080fd5b8101908080519060200190929190805190602001909291908051906020019092919080519060200190929190505050336000806101000a81548173ffffffffffffffffffffffffffffffffffffffff021916908373ffffffffffffffffffffffffffffffffffffffff16021790555060008054906101000a900473ffffffffffffffffffffffffffffffffffffffff1673ffffffffffffffffffffffffffffffffffffffff16600073ffffffffffffffffffffffffffffffffffffffff167f8be0079c531659141344cd1fd0a4f28419497f9722a3daafe3b4186f6b6457e060405160405180910390a3600073ffffffffffffffffffffffffffffffffffffffff168473ffffffffffffffffffffffffffffffffffffffff161415620001b3576040517f08c379a000000000000000000000000000000000000000000000000000000000815260040180806020018281038252602981526020018062002d366029913960400191505060405180910390fd5b600073ffffffffffffffffffffffffffffffffffffffff168373ffffffffffffffffffffffffffffffffffffffff1614156200023b576040517f08c379a000000000000000000000000000000000000000000000000000000000815260040180806020018281038252602b81526020018062002d5f602b913960400191505060405180910390fd5b600073ffffffffffffffffffffffffffffffffffffffff168273ffffffffffffffffffffffffffffffffffffffff161415620002c3576040517f08c379a000000000000000000000000000000000000000000000000000000000815260040180806020018281038252602781526020018062002d8a6027913960400191505060405180910390fd5b600073ffffffffffffffffffffffffffffffffffffffff168173ffffffffffffffffffffffffffffffffffffffff16141562000367576040517f08c379a00000000000000000000000000000000000000000000000000000000081526004018080602001828103825260208152602001807f4556454e5420414444524553532053484f554c44204e4f54204245204e554c4c81525060200191505060405180910390fd5b83600860006101000a81548173ffffffffffffffffffffffffffffffffffffffff021916908373ffffffffffffffffffffffffffffffffffffffff160217905550600860009054906101000a900473ffffffffffffffffffffffffffffffffffffffff16600560006101000a81548173ffffffffffffffffffffffffffffffffffffffff021916908373ffffffffffffffffffffffffffffffffffffffff16021790555082600460006101000a81548173ffffffffffffffffffffffffffffffffffffffff021916908373ffffffffffffffffffffffffffffffffffffffff16021790555081600660006101000a81548173ffffffffffffffffffffffffffffffffffffffff021916908373ffffffffffffffffffffffffffffffffffffffff16021790555080600760006101000a81548173ffffffffffffffffffffffffffffffffffffffff021916908373ffffffffffffffffffffffffffffffffffffffff1602179055505050505061285480620004e26000396000f3fe608060405234801561001057600080fd5b50600436106101425760003560e01c80638f32d59b116100b8578063d7b73b5f1161007c578063d7b73b5f14610425578063da7307f714610453578063e44b289214610497578063e941fa78146104ef578063f2fde38b146104f9578063f9dbce671461053d57610142565b80638f32d59b1461032b57806399bdffec1461034b578063c5b58c301461037f578063d17d4236146103c3578063d324a652146103f757610142565b8063514fcac71161010a578063514fcac71461023f57806359c153be1461026d5780636a1db1bf1461028b578063715018a6146102b95780638da5cb5b146102c35780638e0cb368146102f757610142565b80630aa73eee14610147578063358b2b1a1461016557806335daa731146101995780633ead67b5146101b75780634cef1001146101fb575b600080fd5b61014f610571565b6040518082815260200191505060405180910390f35b61016d610577565b604051808273ffffffffffffffffffffffffffffffffffffffff16815260200191505060405180910390f35b6101a161059d565b6040518082815260200191505060405180910390f35b6101f9600480360360208110156101cd57600080fd5b81019080803573ffffffffffffffffffffffffffffffffffffffff1690602001909291905050506105a3565b005b61023d6004803603602081101561021157600080fd5b81019080803573ffffffffffffffffffffffffffffffffffffffff169060200190929190505050610693565b005b61026b6004803603602081101561025557600080fd5b81019080803590602001909291905050506107dd565b005b610275610b90565b6040518082815260200191505060405180910390f35b6102b7600480360360208110156102a157600080fd5b8101908080359060200190929190505050610f4b565b005b6102c1610f9f565b005b6102cb61106e565b604051808273ffffffffffffffffffffffffffffffffffffffff16815260200191505060405180910390f35b6102ff611097565b604051808273ffffffffffffffffffffffffffffffffffffffff16815260200191505060405180910390f35b6103336110bd565b60405180821515815260200191505060405180910390f35b610353611114565b604051808273ffffffffffffffffffffffffffffffffffffffff16815260200191505060405180910390f35b6103c16004803603602081101561039557600080fd5b81019080803573ffffffffffffffffffffffffffffffffffffffff16906020019092919050505061113a565b005b6103cb611284565b604051808273ffffffffffffffffffffffffffffffffffffffff16815260200191505060405180910390f35b6104236004803603602081101561040d57600080fd5b81019080803590602001909291905050506112aa565b005b6104516004803603602081101561043b57600080fd5b810190808035906020019092919050505061165a565b005b6104956004803603602081101561046957600080fd5b81019080803573ffffffffffffffffffffffffffffffffffffffff169060200190929190505050611a25565b005b6104d9600480360360608110156104ad57600080fd5b810190808035906020019092919080351515906020019092919080359060200190929190505050611b6f565b6040518082815260200191505060405180910390f35b6104f7611fbe565b005b61053b6004803603602081101561050f57600080fd5b81019080803573ffffffffffffffffffffffffffffffffffffffff169060200190929190505050612223565b005b610545612240565b604051808273ffffffffffffffffffffffffffffffffffffffff16815260200191505060405180910390f35b60025481565b600460009054906101000a900473ffffffffffffffffffffffffffffffffffffffff1681565b60015481565b6105ab6110bd565b6105b457600080fd5b600073ffffffffffffffffffffffffffffffffffffffff168173ffffffffffffffffffffffffffffffffffffffff16141561063a576040517f08c379a00000000000000000000000000000000000000000000000000000000081526004018080602001828103825260248152602001806127fb6024913960400191505060405180910390fd5b61064381612223565b7fc3e2da805ea437c78b5c6c445deb30a913bb54e9d19196ce5860c724e34b607d81604051808273ffffffffffffffffffffffffffffffffffffffff16815260200191505060405180910390a150565b61069b6110bd565b6106a457600080fd5b600073ffffffffffffffffffffffffffffffffffffffff168173ffffffffffffffffffffffffffffffffffffffff16141561072a576040517f08c379a00000000000000000000000000000000000000000000000000000000081526004018080602001828103825260278152602001806127076027913960400191505060405180910390fd5b80600660006101000a81548173ffffffffffffffffffffffffffffffffffffffff021916908373ffffffffffffffffffffffffffffffffffffffff1602179055507f0467f0f9df495ecc6d24265ce905363fe1bf50ede4fac395740dbbe4edaf169a600660009054906101000a900473ffffffffffffffffffffffffffffffffffffffff16604051808273ffffffffffffffffffffffffffffffffffffffff16815260200191505060405180910390a150565b6107e561267f565b600960008381526020019081526020016000206040518060a00160405290816000820160009054906101000a900473ffffffffffffffffffffffffffffffffffffffff1673ffffffffffffffffffffffffffffffffffffffff1673ffffffffffffffffffffffffffffffffffffffff168152602001600182015481526020016002820160009054906101000a900460ff16151515158152602001600382015481526020016004820160009054906101000a900460ff1615151515815250509050806080015161091c576040517f08c379a000000000000000000000000000000000000000000000000000000000815260040180806020018281038252601f8152602001807f4f524445522048415320414c5245414459204245454e2043414e43454c45440081525060200191505060405180910390fd5b806000015173ffffffffffffffffffffffffffffffffffffffff163373ffffffffffffffffffffffffffffffffffffffff16146109c1576040517f08c379a000000000000000000000000000000000000000000000000000000000815260040180806020018281038252601f8152602001807f4e4f5420414c4c4f57454420544f2043414e43454c20544845204f524445520081525060200191505060405180910390fd5b600460009054906101000a900473ffffffffffffffffffffffffffffffffffffffff1673ffffffffffffffffffffffffffffffffffffffff1663a9059cbb826000015183602001516040518363ffffffff1660e01b8152600401808373ffffffffffffffffffffffffffffffffffffffff16815260200182815260200192505050602060405180830381600087803b158015610a5c57600080fd5b505af1158015610a70573d6000803e3d6000fd5b505050506040513d6020811015610a8657600080fd5b8101908080519060200190929190505050508060400151610af457610ad28160200151600b6000846060015181526020019081526020016000206001015461226690919063ffffffff16565b600b600083606001518152602001908152602001600020600101819055610b43565b610b258160200151600b6000846060015181526020019081526020016000206000015461226690919063ffffffff16565b600b6000836060015181526020019081526020016000206000018190555b5060008160800190151590811515815250507fc0977a38d654f0d724af562e31ee762eb341c43e9ade64df0f58e549fc0407e6826040518082815260200191505060405180910390a15050565b60008060005b600a60003373ffffffffffffffffffffffffffffffffffffffff1673ffffffffffffffffffffffffffffffffffffffff16815260200190815260200160002080549050811015610dae576000600a60003373ffffffffffffffffffffffffffffffffffffffff1673ffffffffffffffffffffffffffffffffffffffff1681526020019081526020016000208281548110610c2c57fe5b906000526020600020015490506000600960008381526020019081526020016000206003015490506009600083815260200190815260200160002060040160009054906101000a900460ff168015610ca45750600b600082815260200190815260200160002060060160009054906101000a900460ff165b15610d9f5760006009600084815260200190815260200160002060020160009054906101000a900460ff1615610d3057610d29610d0d6009600086815260200190815260200160002060010154600b6000868152602001908152602001600020600201546122b0565b600b6000858152602001908152602001600020600401546122e8565b9050610d88565b610d85610d696009600086815260200190815260200160002060010154600b6000868152602001908152602001600020600301546122b0565b600b6000858152602001908152602001600020600501546122e8565b90505b610d9b818661232890919063ffffffff16565b9450505b50508080600101915050610b96565b506000610dbd826002546122e8565b90506000610dd4828461226690919063ffffffff16565b9050610deb8260035461232890919063ffffffff16565b600381905550600460009054906101000a900473ffffffffffffffffffffffffffffffffffffffff1673ffffffffffffffffffffffffffffffffffffffff1663a9059cbb33836040518363ffffffff1660e01b8152600401808373ffffffffffffffffffffffffffffffffffffffff16815260200182815260200192505050602060405180830381600087803b158015610e8457600080fd5b505af1158015610e98573d6000803e3d6000fd5b505050506040513d6020811015610eae57600080fd5b8101908080519060200190929190505050507fead8056abfb84a63516ba9817cce6dbba09e9c7de989bb29fd3900d8adfb5278816040518082815260200191505060405180910390a1600a60003373ffffffffffffffffffffffffffffffffffffffff1673ffffffffffffffffffffffffffffffffffffffff1681526020019081526020016000206000610f4291906126c8565b82935050505090565b610f536110bd565b610f5c57600080fd5b806002819055507fcbeafbf66b3951ff62aaa30c08ae4f7519925e531fa386afaa28e69a690718696002546040518082815260200191505060405180910390a150565b610fa76110bd565b610fb057600080fd5b600073ffffffffffffffffffffffffffffffffffffffff1660008054906101000a900473ffffffffffffffffffffffffffffffffffffffff1673ffffffffffffffffffffffffffffffffffffffff167f8be0079c531659141344cd1fd0a4f28419497f9722a3daafe3b4186f6b6457e060405160405180910390a360008060006101000a81548173ffffffffffffffffffffffffffffffffffffffff021916908373ffffffffffffffffffffffffffffffffffffffff160217905550565b60008060009054906101000a900473ffffffffffffffffffffffffffffffffffffffff16905090565b600560009054906101000a900473ffffffffffffffffffffffffffffffffffffffff1681565b60008060009054906101000a900473ffffffffffffffffffffffffffffffffffffffff1673ffffffffffffffffffffffffffffffffffffffff163373ffffffffffffffffffffffffffffffffffffffff1614905090565b600660009054906101000a900473ffffffffffffffffffffffffffffffffffffffff1681565b6111426110bd565b61114b57600080fd5b600073ffffffffffffffffffffffffffffffffffffffff168173ffffffffffffffffffffffffffffffffffffffff1614156111d1576040517f08c379a00000000000000000000000000000000000000000000000000000000081526004018080602001828103825260248152602001806127816024913960400191505060405180910390fd5b80600760006101000a81548173ffffffffffffffffffffffffffffffffffffffff021916908373ffffffffffffffffffffffffffffffffffffffff1602179055507f09135b4fdc97a4095a81d858390ea7c3a6bf4ef03214d3444c1c902f772051d3600760009054906101000a900473ffffffffffffffffffffffffffffffffffffffff16604051808273ffffffffffffffffffffffffffffffffffffffff16815260200191505060405180910390a150565b600760009054906101000a900473ffffffffffffffffffffffffffffffffffffffff1681565b600760009054906101000a900473ffffffffffffffffffffffffffffffffffffffff1673ffffffffffffffffffffffffffffffffffffffff163373ffffffffffffffffffffffffffffffffffffffff161461136d576040517f08c379a000000000000000000000000000000000000000000000000000000000815260040180806020018281038252601f8152602001807f43414c4c45522053484f554c44204245204556454e5420434f4e54524143540081525060200191505060405180910390fd5b600560009054906101000a900473ffffffffffffffffffffffffffffffffffffffff1673ffffffffffffffffffffffffffffffffffffffff1663c1917ff0670de0b6b3a7640000606402600b6000858152602001908152602001600020600001546040518363ffffffff1660e01b81526004018083815260200182815260200192505050600060405180830381600087803b15801561140b57600080fd5b505af115801561141f573d6000803e3d6000fd5b50505050600560009054906101000a900473ffffffffffffffffffffffffffffffffffffffff1673ffffffffffffffffffffffffffffffffffffffff16633a9e6d61670de0b6b3a7640000606402600b6000858152602001908152602001600020600101546040518363ffffffff1660e01b81526004018083815260200182815260200192505050600060405180830381600087803b1580156114c157600080fd5b505af11580156114d5573d6000803e3d6000fd5b50505050600560009054906101000a900473ffffffffffffffffffffffffffffffffffffffff1673ffffffffffffffffffffffffffffffffffffffff1663138cc71b6040518163ffffffff1660e01b8152600401602060405180830381600087803b15801561154357600080fd5b505af1158015611557573d6000803e3d6000fd5b505050506040513d602081101561156d57600080fd5b8101908080519060200190929190505050600b600083815260200190815260200160002060020181905550600560009054906101000a900473ffffffffffffffffffffffffffffffffffffffff1673ffffffffffffffffffffffffffffffffffffffff166308d5f2396040518163ffffffff1660e01b8152600401602060405180830381600087803b15801561160257600080fd5b505af1158015611616573d6000803e3d6000fd5b505050506040513d602081101561162c57600080fd5b8101908080519060200190929190505050600b60008381526020019081526020016000206003018190555050565b600760009054906101000a900473ffffffffffffffffffffffffffffffffffffffff1673ffffffffffffffffffffffffffffffffffffffff163373ffffffffffffffffffffffffffffffffffffffff161461171d576040517f08c379a000000000000000000000000000000000000000000000000000000000815260040180806020018281038252601f8152602001807f43414c4c45522053484f554c44204245204556454e5420434f4e54524143540081525060200191505060405180910390fd5b600560009054906101000a900473ffffffffffffffffffffffffffffffffffffffff1673ffffffffffffffffffffffffffffffffffffffff16635cdd42f56000600b6000858152602001908152602001600020600001546040518363ffffffff1660e01b81526004018083815260200182815260200192505050600060405180830381600087803b1580156117b157600080fd5b505af11580156117c5573d6000803e3d6000fd5b50505050600560009054906101000a900473ffffffffffffffffffffffffffffffffffffffff1673ffffffffffffffffffffffffffffffffffffffff1663fc3e52956000600b6000858152602001908152602001600020600101546040518363ffffffff1660e01b81526004018083815260200182815260200192505050600060405180830381600087803b15801561185d57600080fd5b505af1158015611871573d6000803e3d6000fd5b50505050600560009054906101000a900473ffffffffffffffffffffffffffffffffffffffff1673ffffffffffffffffffffffffffffffffffffffff1663138cc71b6040518163ffffffff1660e01b8152600401602060405180830381600087803b1580156118df57600080fd5b505af11580156118f3573d6000803e3d6000fd5b505050506040513d602081101561190957600080fd5b8101908080519060200190929190505050600b600083815260200190815260200160002060040181905550600560009054906101000a900473ffffffffffffffffffffffffffffffffffffffff1673ffffffffffffffffffffffffffffffffffffffff166308d5f2396040518163ffffffff1660e01b8152600401602060405180830381600087803b15801561199e57600080fd5b505af11580156119b2573d6000803e3d6000fd5b505050506040513d60208110156119c857600080fd5b8101908080519060200190929190505050600b6000838152602001908152602001600020600501819055506001600b600083815260200190815260200160002060060160006101000a81548160ff02191690831515021790555050565b611a2d6110bd565b611a3657600080fd5b600073ffffffffffffffffffffffffffffffffffffffff168173ffffffffffffffffffffffffffffffffffffffff161415611abc576040517f08c379a000000000000000000000000000000000000000000000000000000000815260040180806020018281038252602c815260200180612755602c913960400191505060405180910390fd5b80600860006101000a81548173ffffffffffffffffffffffffffffffffffffffff021916908373ffffffffffffffffffffffffffffffffffffffff1602179055507fd152582b1f154687d52d33c897d0f1b18d07a6eb51815ac56b1e73c291cd4804600860009054906101000a900473ffffffffffffffffffffffffffffffffffffffff16604051808273ffffffffffffffffffffffffffffffffffffffff16815260200191505060405180910390a150565b600083600460009054906101000a900473ffffffffffffffffffffffffffffffffffffffff1673ffffffffffffffffffffffffffffffffffffffff166370a08231336040518263ffffffff1660e01b8152600401808273ffffffffffffffffffffffffffffffffffffffff16815260200191505060206040518083038186803b158015611bfb57600080fd5b505afa158015611c0f573d6000803e3d6000fd5b505050506040513d6020811015611c2557600080fd5b81019080805190602001909291905050501015611c8d576040517f08c379a000000000000000000000000000000000000000000000000000000000815260040180806020018281038252602781526020018061272e6027913960400191505060405180910390fd5b6001600081548092919060010191905055506040518060a001604052803373ffffffffffffffffffffffffffffffffffffffff16815260200185815260200184151581526020018381526020016001151581525060096000600154815260200190815260200160002060008201518160000160006101000a81548173ffffffffffffffffffffffffffffffffffffffff021916908373ffffffffffffffffffffffffffffffffffffffff1602179055506020820151816001015560408201518160020160006101000a81548160ff0219169083151502179055506060820151816003015560808201518160040160006101000a81548160ff02191690831515021790555090505082611de057611dc284600b60008581526020019081526020016000206001015461232890919063ffffffff16565b600b6000848152602001908152602001600020600101819055611e23565b611e0984600b60008581526020019081526020016000206000015461232890919063ffffffff16565b600b60008481526020019081526020016000206000018190555b50600a60003373ffffffffffffffffffffffffffffffffffffffff1673ffffffffffffffffffffffffffffffffffffffff1681526020019081526020016000206001549080600181540180825580915050600190039060005260206000200160009091909190915055600460009054906101000a900473ffffffffffffffffffffffffffffffffffffffff1673ffffffffffffffffffffffffffffffffffffffff166323b872dd3330876040518463ffffffff1660e01b8152600401808473ffffffffffffffffffffffffffffffffffffffff1681526020018373ffffffffffffffffffffffffffffffffffffffff1681526020018281526020019350505050602060405180830381600087803b158015611f3d57600080fd5b505af1158015611f51573d6000803e3d6000fd5b505050506040513d6020811015611f6757600080fd5b8101908080519060200190929190505050507fc94c2b8da2fb9b04a081fc6a8bd9047288755092674abfabd050908a5d57fb746001546040518082815260200191505060405180910390a160015490509392505050565b611fc66110bd565b611fcf57600080fd5b600354600460009054906101000a900473ffffffffffffffffffffffffffffffffffffffff1673ffffffffffffffffffffffffffffffffffffffff166370a08231306040518263ffffffff1660e01b8152600401808273ffffffffffffffffffffffffffffffffffffffff16815260200191505060206040518083038186803b15801561205b57600080fd5b505afa15801561206f573d6000803e3d6000fd5b505050506040513d602081101561208557600080fd5b810190808051906020019092919050505010156120ed576040517f08c379a00000000000000000000000000000000000000000000000000000000081526004018080602001828103825260568152602001806127a56056913960600191505060405180910390fd5b600460009054906101000a900473ffffffffffffffffffffffffffffffffffffffff1673ffffffffffffffffffffffffffffffffffffffff1663a9059cbb600660009054906101000a900473ffffffffffffffffffffffffffffffffffffffff166003546040518363ffffffff1660e01b8152600401808373ffffffffffffffffffffffffffffffffffffffff16815260200182815260200192505050602060405180830381600087803b1580156121a457600080fd5b505af11580156121b8573d6000803e3d6000fd5b505050506040513d60208110156121ce57600080fd5b81019080805190602001909291905050505060006003819055507f500f2afc37f56f6e50194f934f374eb908a801d4c1a942cacca33e3a193fe4d26003546040518082815260200191505060405180910390a1565b61222b6110bd565b61223457600080fd5b61223d816123b0565b50565b600860009054906101000a900473ffffffffffffffffffffffffffffffffffffffff1681565b60006122a883836040518060400160405280601e81526020017f536166654d6174683a207375627472616374696f6e206f766572666c6f7700008152506124a7565b905092915050565b6000816122d86122c885670de0b6b3a7640000612567565b600285816122d257fe5b046125fc565b816122df57fe5b04905092915050565b6000670de0b6b3a76400006123186123008585612567565b6002670de0b6b3a76400008161231257fe5b046125fc565b8161231f57fe5b04905092915050565b6000808284019050838110156123a6576040517f08c379a000000000000000000000000000000000000000000000000000000000815260040180806020018281038252601b8152602001807f536166654d6174683a206164646974696f6e206f766572666c6f77000000000081525060200191505060405180910390fd5b8091505092915050565b600073ffffffffffffffffffffffffffffffffffffffff168173ffffffffffffffffffffffffffffffffffffffff1614156123ea57600080fd5b8073ffffffffffffffffffffffffffffffffffffffff1660008054906101000a900473ffffffffffffffffffffffffffffffffffffffff1673ffffffffffffffffffffffffffffffffffffffff167f8be0079c531659141344cd1fd0a4f28419497f9722a3daafe3b4186f6b6457e060405160405180910390a3806000806101000a81548173ffffffffffffffffffffffffffffffffffffffff021916908373ffffffffffffffffffffffffffffffffffffffff16021790555050565b6000838311158290612554576040517f08c379a00000000000000000000000000000000000000000000000000000000081526004018080602001828103825283818151815260200191508051906020019080838360005b838110156125195780820151818401526020810190506124fe565b50505050905090810190601f1680156125465780820380516001836020036101000a031916815260200191505b509250505060405180910390fd5b5060008385039050809150509392505050565b600080821480612584575082828385029250828161258157fe5b04145b6125f6576040517f08c379a00000000000000000000000000000000000000000000000000000000081526004018080602001828103825260148152602001807f64732d6d6174682d6d756c2d6f766572666c6f7700000000000000000000000081525060200191505060405180910390fd5b92915050565b6000828284019150811015612679576040517f08c379a00000000000000000000000000000000000000000000000000000000081526004018080602001828103825260148152602001807f64732d6d6174682d6164642d6f766572666c6f7700000000000000000000000081525060200191505060405180910390fd5b92915050565b6040518060a00160405280600073ffffffffffffffffffffffffffffffffffffffff16815260200160008152602001600015158152602001600081526020016000151581525090565b50805460008255906000526020600020908101906126e691906126e9565b50565b5b808211156127025760008160009055506001016126ea565b509056fe4e455720574954484452415720414444524553532053484f554c44204e4f54204245204e554c4c4e4f5420454e4f55474820434f4c4c41544552414c20494e20555345522753204143434f554e544e4557205345434f4e44415259504f4f4c20414444524553532053484f554c44204e4f54204245204e554c4c4e4557204556454e5420414444524553532053484f554c44204e4f54204245204e554c4c494e53554646494349454e5420544f4b454e2854484154204953204c4f574552205448414e20455850454354454420434f4c4c45435445444645452920494e2050454e44494e474f524445525320434f4e54524143544e4557204f574e455220414444524553532053484f554c44204e4f54204245204e554c4ca2646970667358221220ca9013d503e9c71b7d182c27ef85381eefe387b8299c64a6ac37df783b018e3d64736f6c634300070400335345434f4e4441525920504f4f4c20414444524553532053484f554c44204e4f54204245204e554c4c434f4c4c41544552414c20544f4b454e20414444524553532053484f554c44204e4f54204245204e554c4c46454520574954484452415720414444524553532053484f554c44204e4f54204245204e554c4c",
  "immutableReferences": {},
  "source": "pragma solidity ^0.7.4;\r\n\r\n// \"SPDX-License-Identifier: MIT\"\r\n\r\nimport \"./DSMath.sol\";\r\nimport \"./SafeMath.sol\";\r\nimport \"./IERC20.sol\";\r\nimport \"./Ownable.sol\";\r\nimport \"./ISecondaryPool.sol\";\r\n\r\ncontract PendingOrders is DSMath, Ownable {\r\n\r\n\tusing SafeMath for uint256;\r\n\r\n\tstruct Order {\r\n\t\taddress orderer;\r\n\t\tuint amount;\r\n\t\tbool isWhite;\r\n\t\tuint eventId;\r\n\t\tbool isPending;\r\n\t}\r\n\r\n\tuint public ordersCount;\r\n\r\n\tuint constant _maxPrice = 100 * WAD;\r\n\tuint constant _minPrice = 0;\r\n\tuint public _FEE = 1e14;\r\n\tuint _collectedFee;\r\n\r\n\tIERC20 public _collateralToken;\r\n\tISecondaryPool public _secondaryPool;\r\n\r\n\taddress public _feeWithdrawAddress;\r\n\taddress public _eventContractAddress;\r\n\taddress public _secondaryPoolAddress;\r\n\r\n\tmapping(uint => Order) Orders;\r\n\tmapping(address => uint[]) ordersOfUser;\r\n\t\r\n\tstruct detail {\r\n\t    uint whiteAmount;\r\n\t    uint blackAmount;\r\n\t    uint whitePriceBefore;\r\n\t    uint blackPriceBefore;\r\n\t    uint whitePriceAfter;\r\n\t    uint blackPriceAfter;\r\n\t    bool isExecuted;\r\n\t}\r\n\t\r\n\tmapping(uint => detail) detailForEvent;\r\n\r\n\tevent orderCreated(uint);\r\n\tevent orderCanceled(uint);\r\n\tevent collateralWithdrew(uint);\r\n\tevent contractOwnerChanged(address);\r\n\tevent secondaryPoolAddressChanged(address);\r\n\tevent eventContractAddressChanged(address);\r\n\tevent feeWithdrawAddressChanged(address);\r\n\tevent feeWithdrew(uint);\r\n\tevent feeChanged(uint);\r\n\r\n\tconstructor (\r\n\t\taddress secondaryPoolAddress,\r\n\t\taddress collateralTokenAddress,\r\n\t\taddress feeWithdrawAddress,\r\n\t\taddress eventContractAddress\r\n\t) {\r\n\t\trequire(\r\n\t\t\tsecondaryPoolAddress != address(0),\r\n\t\t\t\"SECONDARY POOL ADDRESS SHOULD NOT BE NULL\"\r\n\t\t);\r\n\t\trequire(\r\n\t\t\tcollateralTokenAddress != address(0),\r\n\t\t\t\"COLLATERAL TOKEN ADDRESS SHOULD NOT BE NULL\"\r\n\t\t);\r\n\t\trequire(\r\n\t\t\tfeeWithdrawAddress != address(0),\r\n\t\t\t\"FEE WITHDRAW ADDRESS SHOULD NOT BE NULL\"\r\n\t\t);\r\n\t\trequire(\r\n\t\t\teventContractAddress != address(0),\r\n\t\t\t\"EVENT ADDRESS SHOULD NOT BE NULL\"\r\n\t\t);\r\n\t\t_secondaryPoolAddress = secondaryPoolAddress;\r\n\t\t_secondaryPool = ISecondaryPool(_secondaryPoolAddress);\r\n\t\t_collateralToken = IERC20(collateralTokenAddress);\r\n\t\t_feeWithdrawAddress = feeWithdrawAddress;\r\n\t\t_eventContractAddress = eventContractAddress;\r\n\t}\r\n\r\n\tmodifier onlyEventContract {\r\n        require(\r\n            msg.sender == _eventContractAddress,\r\n            \"CALLER SHOULD BE EVENT CONTRACT\"\r\n        );\r\n        _;\r\n    }\r\n\r\n    function createOrder(uint _amount, bool _isWhite, uint _eventId) external returns(uint) {\r\n    \trequire(\r\n\t\t\t_collateralToken.balanceOf(msg.sender) >= _amount,\r\n\t\t\t\"NOT ENOUGH COLLATERAL IN USER'S ACCOUNT\"\r\n\t\t);\t\t\r\n\t\tordersCount++;\r\n\t\tOrders[ordersCount] = Order(\r\n\t\t\tmsg.sender,\r\n\t\t\t_amount,\r\n\t\t\t_isWhite,\r\n\t\t\t_eventId,\r\n\t\t\ttrue\r\n\t\t);\r\n\t\t_isWhite\r\n\t\t\t? detailForEvent[_eventId].whiteAmount = detailForEvent[_eventId].whiteAmount.add(_amount)\r\n\t\t\t: detailForEvent[_eventId].blackAmount = detailForEvent[_eventId].blackAmount.add(_amount);\r\n\t\t\t\r\n\t\tordersOfUser[msg.sender].push(ordersCount);\r\n\r\n\t\t_collateralToken.transferFrom(msg.sender, address(this), _amount);\r\n\t\temit orderCreated(ordersCount);\r\n\t\treturn ordersCount;\r\n    }\r\n\r\n    function cancelOrder(uint _orderId) external {\r\n        Order memory _Order = Orders[_orderId];\r\n    \trequire(\r\n    \t\t_Order.isPending,\r\n\t\t\t\"ORDER HAS ALREADY BEEN CANCELED\"\r\n\t\t);\r\n\t\trequire(\r\n\t\t\tmsg.sender == _Order.orderer,\r\n\t\t\t\"NOT ALLOWED TO CANCEL THE ORDER\"\r\n\t\t);\r\n\t\t_collateralToken.transfer(\r\n\t\t\t_Order.orderer,\r\n\t\t\t_Order.amount\r\n\t\t);\r\n\t\t_Order.isWhite\r\n\t\t\t? detailForEvent[_Order.eventId].whiteAmount = detailForEvent[_Order.eventId].whiteAmount.sub(_Order.amount)\r\n\t\t\t: detailForEvent[_Order.eventId].blackAmount = detailForEvent[_Order.eventId].blackAmount.sub(_Order.amount);\r\n\t\t_Order.isPending = false;\r\n\t\temit orderCanceled(_orderId);\r\n    }\r\n\r\n    function eventStart(uint _eventId) external onlyEventContract {\r\n    \t_secondaryPool.buyWhite(_maxPrice, detailForEvent[_eventId].whiteAmount);\r\n    \t_secondaryPool.buyBlack(_maxPrice, detailForEvent[_eventId].blackAmount);\r\n    \tdetailForEvent[_eventId].whitePriceBefore = _secondaryPool._whitePrice();\r\n    \tdetailForEvent[_eventId].blackPriceBefore = _secondaryPool._blackPrice();\r\n    }\r\n\r\n    function eventEnd(uint _eventId) external onlyEventContract {\r\n    \t_secondaryPool.sellWhite(_minPrice, detailForEvent[_eventId].whiteAmount);\r\n    \t_secondaryPool.sellBlack(_minPrice, detailForEvent[_eventId].blackAmount);\r\n    \tdetailForEvent[_eventId].whitePriceAfter = _secondaryPool._whitePrice();\r\n    \tdetailForEvent[_eventId].blackPriceAfter = _secondaryPool._blackPrice();\r\n    \tdetailForEvent[_eventId].isExecuted = true;\r\n    }\r\n\r\n    function withdrawCollateral() external returns(uint) {\r\n        uint totalWithdrawAmount;\r\n        for (uint i = 0; i < ordersOfUser[msg.sender].length; i++) {\r\n            uint _oId = ordersOfUser[msg.sender][i];\r\n            uint _eId = Orders[_oId].eventId;\r\n            if (Orders[_oId].isPending && detailForEvent[_eId].isExecuted) {\r\n                uint withdrawAmount;\r\n                if (Orders[_oId].isWhite) {\r\n                    withdrawAmount = wmul(\r\n                        wdiv(\r\n                            Orders[_oId].amount,\r\n                            detailForEvent[_eId].whitePriceBefore\r\n                        ),\r\n                        detailForEvent[_eId].whitePriceAfter\r\n                    );\r\n                } else {\r\n                    withdrawAmount = wmul(\r\n                        wdiv(\r\n                            Orders[_oId].amount,\r\n                            detailForEvent[_eId].blackPriceBefore\r\n                        ),\r\n                        detailForEvent[_eId].blackPriceAfter\r\n                    );\r\n                }\r\n                totalWithdrawAmount = totalWithdrawAmount.add(withdrawAmount);\r\n            }\r\n        }\r\n        \r\n        uint feeAmount = wmul(totalWithdrawAmount, _FEE);\r\n        uint userWithdrawAmount = totalWithdrawAmount.sub(feeAmount);\r\n        \r\n        _collectedFee = _collectedFee.add(feeAmount);\r\n        _collateralToken.transfer(msg.sender, userWithdrawAmount);\r\n        emit collateralWithdrew(userWithdrawAmount);\r\n        \r\n        delete ordersOfUser[msg.sender];\r\n        \r\n        return totalWithdrawAmount;\r\n    }\r\n\r\n    function changeContractOwner(address _newOwnerAddress) external onlyOwner {\r\n\t\trequire(\r\n\t\t\t_newOwnerAddress != address(0),\r\n\t\t\t\"NEW OWNER ADDRESS SHOULD NOT BE NULL\"\r\n\t\t);\r\n\t\ttransferOwnership(_newOwnerAddress);\r\n\t\temit contractOwnerChanged(_newOwnerAddress);\r\n\t}\r\n\r\n\tfunction changeSecondaryPoolAddress(address _newPoolAddress) external onlyOwner {\r\n\t\trequire(\r\n\t\t\t_newPoolAddress != address(0),\r\n\t\t\t\"NEW SECONDARYPOOL ADDRESS SHOULD NOT BE NULL\"\r\n\t\t);\r\n\t\t_secondaryPoolAddress = _newPoolAddress;\r\n\t\temit secondaryPoolAddressChanged(_secondaryPoolAddress);\r\n\t}\r\n\r\n\tfunction changeEventContractAddress(address _newEventAddress) external onlyOwner {\r\n\t\trequire(\r\n\t\t\t_newEventAddress != address(0),\r\n\t\t\t\"NEW EVENT ADDRESS SHOULD NOT BE NULL\"\r\n\t\t);\r\n\t\t_eventContractAddress = _newEventAddress;\r\n\t\temit eventContractAddressChanged(_eventContractAddress);\r\n\t}\r\n\r\n\tfunction changeFeeWithdrawAddress(address _newFeeWithdrawAddress) external onlyOwner {\r\n\t\trequire(\r\n\t\t\t_newFeeWithdrawAddress != address(0),\r\n\t\t\t\"NEW WITHDRAW ADDRESS SHOULD NOT BE NULL\"\r\n\t\t);\r\n\t\t_feeWithdrawAddress = _newFeeWithdrawAddress;\r\n\t\temit feeWithdrawAddressChanged(_feeWithdrawAddress);\r\n\t}\r\n\r\n\tfunction withdrawFee() external onlyOwner {\r\n\t    require(\r\n\t        _collateralToken.balanceOf(address(this)) >= _collectedFee,\r\n\t        \"INSUFFICIENT TOKEN(THAT IS LOWER THAN EXPECTED COLLECTEDFEE) IN PENDINGORDERS CONTRACT\"\r\n\t    );\r\n\t\t_collateralToken.transfer(_feeWithdrawAddress, _collectedFee);\r\n\t\t_collectedFee = 0;\r\n\t\temit feeWithdrew(_collectedFee);\r\n\t}\r\n\r\n\tfunction changeFee(uint _newFEE) external onlyOwner {\r\n\t\t_FEE = _newFEE;\r\n\t\temit feeChanged(_FEE);\r\n\t}\r\n\r\n}",
  "sourcePath": "D:\\daniel\\try\\truffle_1\\contracts\\PendingOrders.sol",
  "compiler": {
    "name": "solc",
    "version": "0.7.4+commit.3f05b770.Emscripten.clang"
  },
  "schemaVersion": "3.4.3",
  "updatedAt": "2021-08-31T16:19:54.555Z",
  "devdoc": {
    "kind": "dev",
    "methods": {
      "isOwner()": {
        "returns": {
          "_0": "true if `msg.sender` is the owner of the contract."
        }
      },
      "owner()": {
        "returns": {
          "_0": "the address of the owner."
        }
      },
      "renounceOwnership()": {
        "details": "Allows the current owner to relinquish control of the contract."
      },
      "transferOwnership(address)": {
        "details": "Allows the current owner to transfer control of the contract to a newOwner.",
        "params": {
          "newOwner": "The address to transfer ownership to."
        }
      }
    },
    "version": 1
  },
  "userdoc": {
    "kind": "user",
    "methods": {
      "renounceOwnership()": {
        "notice": "Renouncing to ownership will leave the contract without an owner. It will not be possible to call the functions with the `onlyOwner` modifier anymore."
      }
    },
    "version": 1
  }
}